S01100004D6963726F636869702E7372656375
S11300000C9434000C943E000C943E000C943E007E
S11300100C943E000C943E000C943E000C943E0064
S11300200C943E000C943E000C943E000C943E0054
S11300300C943E000C943E000C943E000C943E0044
S11300400C943E000C943E000C943E000C943E0034
S11300500C943E000C943E000C943E000C943E0024
S11300600C943E000C943E0011241FBECFEFD8E048
S1130070DEBFCDBF0E9440000C94AE000C94000083
S11300808FEF8AB987B18C7F87B984B1886184B9CD
S113009088B1836088B960E041E055E591E004C02F
S11300A055E591E001C041E085B1877E85B931997C
S11300B00BC085B1292F30E0220F331F220F331FCD
S11300C0220F331F282B25B930990FC08BEA989F34
S11300D0812D11248695282F220F820F981B892F9A
S11300E091E0980F60E041E055E5923081F0933063
S11300F0E1F09130A9F65BB92FEF31EE84E02150A5
S113010030408040E1F700C000005095CDCF4BB99E
S11301102FEF31EE84E0215030408040E1F700C001
S11301200000440F09F4BFCFBFCF4BB92FEF31EE1E
S113013084E0215030408040E1F700C00000662395
S113014011F0469501C0440F662311F0413019F0B7
S1130150403809F0A9CF81E06827A6CFF894FFCFF3
S9030000FC
