S01100004D6963726F636869702E7372656375
S11300000C9434000C943E000C943E000C943E007E
S11300100C943E000C943E000C943E000C943E0064
S11300200C943E000C943E000C943E000C943E0054
S11300300C943E000C943E000C943E000C943E0044
S11300400C943E000C943E000C943E000C943E0034
S11300500C943E000C943E000C943E000C943E0024
S11300600C943E000C943E0011241FBECFEFD8E048
S1130070DEBFCDBF0E9440000C94A1000C94000090
S11300808FEF8AB987B18C7F87B984B1886184B9CD
S113009088B1836088B950E070E041E065E591E0A3
S11300A085B1877E85B931990BC085B1292F30E0A0
S11300B0220F331F220F331F220F331F282B25B982
S11300C0511113C0309913C08BEA989F812D1124CC
S11300D08695282F220F820F981B892F91E0980F65
S11300E051E070E041E065E502C0309950E09230A3
S11300F039F0933049F09130B1F46BB9609517C081
S11301004BB9440F99F013C04BB9772311F04695BE
S113011001C0440F772311F0413011F0403839F415
S113012081E0782704C065E591E001C041E02FEF4C
S113013031EE84E0215030408040E1F700C00000FF
S1090140AFCFF894FFCFDD
S9030000FC
