S00C0000454A31312E7372656327
S11300000C9434000C9446000C9446000C94460066
S11300100C9446000C9446000C9446000C94460044
S11300200C9446000C9446000C9446000C94460034
S11300300C9446000C9446000C9446000C94460024
S11300400C9446000C9446000C9446000C94460014
S11300500C9446000C9446000C9446000C94460004
S11300600C9446000C94460011241FBECFEFD8E038
S1130070DEBFCDBF21E0A0E0B1E001C01D92A230FF
S1130080B207E1F70E9492000C94B0000C940000B7
S113009090910101913079F028F09230F1F0933091
S11300A029F136C0811136C081E08093010110929C
S11300B0000180E0089581110CC0809100018F5FE0
S11300C080930001843140F182E08093010181E05A
S11300D008951092010180E008958130F9F483E0DD
S11300E0809301011092000180E00895813059F459
S11300F0809100018F5F80930001843188F0109219
S1130100010180E0089582E08093010180E0089578
S113011080E0089580E0089580E0089580E00895E7
S113012080E008958AB18B7F8AB98BB184608BB9E2
S113013084B1816084B989B1847090E09595879584
S1130140959587950E944800813019F495B18927C7
S113015085B98FE99FE00197F1F700C00000EBCF6C
S1070160F894FFCF3D
S9030000FC
