S01100004D6963726F636869702E7372656375
S11300000C945B000C9478000C9478000C947800A9
S11300100C9478000C9478000C9478000C9478007C
S11300200C9478000C9478000C9478000C9478006C
S11300300C9478000C9478000C9409030C947800C8
S11300400C9478000C9478000C9478000C9478004C
S11300500C9478000C9478000C9478000C9478003C
S11300600C9478000C9478003A037103AB030804F1
S11300707F04C204E404001F000000001F00001FEE
S1130080101010101F00001F181818181F00001F50
S11300901C1C1C1C1F00001F1E1E1E1E1F00001FF8
S11300A01F1F1F1F1F0003070F1F0F070300181C2C
S11300B01E1F1E1C180011241FBECFEFD8E0DEBF88
S11300C0CDBF12E0A0E0B1E0E4E8F2E102C00590A7
S11300D00D92A433B107D9F722E0A4E3B2E001C042
S11300E01D92A534B207E1F70E9420050C94400943
S11300F00C940000FC010FB6F894609141027091D9
S1130100420280914302909144020FBE309721F045
S11301106083718382839383089584B1896184B9F0
S11301208AB180688AB98AB1837C8AB98BB18C63BD
S11301308BB90895E0E05AC025B1296125B92BB1E6
S113014020682BB9E13051F028F0E23059F0E33067
S113015069F00FC025B12F7E25B90BC025B1277FCB
S113016025B907C025B12E7F25B903C02BB12F7740
S11301702BB92AE12A95F1F700C04B990CC0F0E0A5
S1130180EE0FFF1FEE0FFF1FE85CFE4F2081FC0106
S1130190208381E008954D990CC0F0E0EE0FFF1F1D
S11301A0EE0FFF1FE75CFE4F2081FC01208381E0FE
S11301B008954C990CC0F0E0EE0FFF1FEE0FFF1FE7
S11301C0E65CFE4F2081FC01208381E008954A997A
S11301D00CC0F0E0EE0FFF1FEE0FFF1FE55CFE4FBB
S11301E02081FC01208381E00895EF5FE43008F46E
S11301F0A3CF80E0089565B1982F9074492F50E003
S113020055954795559547955595479555954795D2
S1130210982F9078292F30E0022E232F000C221FD4
S1130220330B000C221F331F962F997F492B242B4D
S113023025B968B1982F9071492F50E0559547958D
S11302405595479555954795982F9072292F30E0ED
S1130250359527953595279535952795962F997F2B
S1130260492B242B28B99BB192609BB99BB1916017
S11302709BB925ED2A95F1F700009BB19E7F9BB9B0
S11302809BB19D7F9BB995ED9A95F1F7000065B1FF
S113029020E1829FC0011124AC014074552755957B
S11302A047955595479555954795559547959C017F
S11302B020783327022E232F000C221F330B000C2F
S11302C0221F331F362F397F432B242B25B948B1E6
S11302D09C012071332735952795359527953595BC
S11302E027958072992795958795959587959595E6
S11302F08795942F997F292B822B88B98BB18260A3
S11303008BB98BB181608BB985ED8A95F1F70000CB
S11303108BB18E7F8BB98BB18D7F8BB995ED9A950F
S1130320F1F70000089565B1982F9074492F50E0BB
S113033055954795559547955595479555954795A1
S1130340982F9078292F30E0022E232F000C221FA3
S1130350330B000C221F331F962F997F492B242B1C
S113036025B968B1982F9071492F50E0559547955C
S11303705595479555954795982F9072292F30E0BC
S1130380359527953595279535952795962F997FFA
S1130390492B242B28B99BB191609BB9EFE9FFE06D
S11303A03197F1F700C000009BB19E7F9BB9EFE944
S11303B0FFE03197F1F700C0000065B1F0E18F9FD5
S11303C0C0011124AC0140745527559547955595A6
S11303D0479555954795559547959C012078332722
S11303E0022E232F000C221F330B000C221F331F5D
S11303F0362F397F432B242B25B948B19C0120711A
S1130400332735952795359527953595279580720A
S11304109927959587959595879595958795942F83
S1130420997F292B822B88B98BB181608BB98FE995
S11304309FE00197F1F700C000008BB18E7F8BB96C
S1130440EFE9FFE03197F1F700C00000089581E083
S11304500E949301089582E00E94930108950F93EE
S11304601F93CF93DF93009769F0D62F8C01C0E0E0
S113047007C0F801EC0FF11D80810E94FB00CF5FE3
S1130480CD17B8F3DF91CF911F910F91089562308A
S113049031F0633031F0613029F4805C03C08C5E4C
S11304A001C08C5A80680E9493010895EF92FF92D4
S11304B00F931F93CF93DF937C01862F90E0880FD7
S11304C0991F880F991F880F991F8064C0E0D0E09E
S11304D00DC0F701EC0FFD1F149101E0080F0E94FD
S11304E09301812F0E94FB002196802FC830D105F3
S11304F080F3DF91CF911F910F91FF90EF900895BA
S1130500CF93DF938FE59AEE0197F1F700C00000D7
S113051085B1897F85B988B1897F88B91BB884B1D1
S1130520866084B987B1866087B98AB183608AB9E5
S113053085B1897F85B988B1866088B98BB18160BE
S11305408BB98FE99FE00197F1F700C000008BB1F0
S11305508E7F8BB98FE99FE00197F1F700C000000F
S113056085B1897F85B988B1866088B98BB181608E
S11305708BB98FE99FE00197F1F700C000008BB1C0
S11305808E7F8BB98FE99FE00197F1F700C00000DF
S113059085B1897F85B988B1897F846088B98BB139
S11305A081608BB98FE99FE00197F1F700C00000EB
S11305B08BB18E7F8BB98FE99FE00197F1F700C073
S11305C0000088E20E9493018CE00E94930160E0A5
S11305D0C0E00AC0D1E0D60F8C2F90E08A589F4F1C
S11305E00E945602C85F6D2FC034A0F3DF91CF91F3
S11305F008950E9480020E9427020E942B020895FF
S113060082E084BD95E095BD9BE997BD80936E0023
S113061008951F920F920FB60F9211240F931F93F8
S11306202F933F934F935F936F937F938F939F93F6
S1130630AF93BF93EF93FF93CF93DF93CDB7DEB721
S11306406097DEBFCDBF80913C028F5F80933C02F8
S113065080913A028F5F80933A02E09140028E2F9C
S113066090E08730910508F0D0C1FC01EC5CFF4FAD
S11306700C9457058FEF8093050185E091E00E946B
S11306809A00809105018A3209F0BFC181E080930C
S113069040020E9427020E94CC0569E170E00E949A
S11306A04305FC01EE0FFF1FEA5FFE4F808191813D
S11306B090933F0280933E0260E080E00E944702F4
S11306C06AE088E491E00E942F0265E080913E0296
S11306D090913F020E942F0210923C0210923B0222
S11306E094C180913C02843638F080913B028F5F44
S11306F080933B0210923C0280913B02823008F4CA
S113070084C110923B0210923A0210923902109264
S11307103D021092380283E0809304010E94270274
S113072060E080E00E9447026AE088E491E00E9471
S11307302F0261E08DE00E94470280910401805DF8
S11307400E94FB0062E083E591E00E942F0282E0B8
S1130750809340025AC180913A02843638F08091E5
S113076039028F5F8093390210923A0280913802E5
S113077090E08C5C9D4FFC0110820E949A00809155
S11307803802282F30E0F901EC5CFD4F9081992369
S113079069F19332D9F4F901EC5CFD4F108284E3E2
S11307A092E00E94DC0520913D02E0913E02F0912E
S11307B03F02E20FF11D208130E08217930711F40C
S11307C083E001C084E08093400210C061E00E9495
S11307D04702E0913802F0E0EC5CFD4F80810E941A
S11307E0FB00809138028F5F80933802FFEF23EC87
S11307F089E0F15020408040E1F700C00000809182
S11308003802843008F401C184E080934002FDC0C2
S113081080913A02843638F0809139028F5F809358
S1130820390210923A0280913D028F5F80933D021B
S11308301092380260E08AE00E94470260913D0213
S113084080913E0290913F020E942F0261E080E07D
S11308500E94470264E086E591E00E942F028091A5
S11308603D02853008F447C010923C0210923B02CE
S11308700E94270260E080E00E94470268E08BE566
S113088091E00E942F02809139021F928F9384E697
S113089091E09F938F938E010F5F1F4F1F930F93D0
S11308A00E940206F80101900020E9F73197CF0178
S11308B0801B910B8C010F900F900F900F900F9055
S11308C00F90803158F420E130E0281B3109C90130
S11308D099230CF401969595879501C080E061E019
S11308E00E944702602FCE0101960E942F0285E0EC
S11308F0809340028AC082E08093400286C0809147
S11309003A02843638F0809139028F5F809339023D
S113091010923A021092380261E080E00E9447028D
S113092064E086E591E00E942F02809104018150E9
S11309308093040161E08DE00E94470280910401EC
S1130940805D0E94FB0080910401811117C0109208
S11309503C0210923B020E94270260E080E00E9469
S1130960470269E084E791E00E942F0261E080E0A1
S11309700E94470286E08093400247C082E0809351
S1130980400243C080913C02843638F080913B029F
S11309908F5F80933B0210923C0280913B02853032
S11309A0A0F10E9427026FE08EE791E00E942F02DF
S11309B061E080E00E9447026FE08DE891E00E94D0
S11309C02F021092400221C080913C02843638F0FC
S11309D080913B028F5F80933B0210923C02809196
S11309E03B02853090F00E9427026FE08EE791E091
S11309F00E942F0261E080E00E9447026FE08DE8D0
S1130A0091E00E942F021092400260960FB6F89473
S1130A10DEBF0FBECDBFDF91CF91FF91EF91BF91AC
S1130A20AF919F918F917F916F915F914F913F9182
S1130A302F911F910F910F900FBE0F901F9018953B
S1130A400E94F9020E948D000E9400038FE39CE93A
S1130A500197F1F700C0000080E090E00E947A0066
S1130A60CB010E94D1056FE08EE791E00E942F0236
S1130A7061E080E00E9447026FE08DE891E00E940F
S1130A802F027894FFCF97FB072E16F4009407D01B
S1130A9077FD09D00E946C0507FC05D03EF49095C3
S1130AA081959F4F0895709561957F4F0895EE0F3E
S1130AB0FF1F0590F491E02D0994A29FB001B39F0C
S1130AC0C001A39F700D811D1124911DB29F700D53
S1130AD0811D1124911D0895AA1BBB1B51E107C060
S1130AE0AA1FBB1FA617B70710F0A61BB70B881FBA
S1130AF0991F5A95A9F780959095BC01CD01089549
S1130B008F929F92AF92BF92CF92DF92EF92FF9219
S1130B10CF93DF93EC01688179818A819B81611590
S1130B2071058105910521F464E279ED8BE597E087
S1130B302DE133EF41E050E00E94B50849015A012C
S1130B409B01AC01A7EAB1E40E94D4086B017C01CB
S1130B50ACEEB4EFA50194010E94E208DC01CB01E4
S1130B608C0D9D1DAE1DBF1DB7FF03C00197A109CC
S1130B70B04888839983AA83BB839F77DF91CF9101
S1130B80FF90EF90DF90CF90BF90AF909F908F90A9
S1130B9008950E948005089580E091E00E948005F8
S1130BA00895A0E0B0E08093000190930101A09328
S1130BB00201B09303010895FC0188279927E89462
S1130BC021912032E9F3293010F02E30C8F32B3272
S1130BD041F02D3239F4689404C00E94FA05820F62
S1130BE0911D219120532A30C0F31EF490958195D4
S1130BF09F4F08957AE0979F902D879F802D910DA8
S1130C0011240895AEE0B0E0E8E0F6E00C94F508B5
S1130C100D891E8986E08C831A8309838FEF9FE7F1
S1130C209E838D83AE01475E5F4F6F89788DCE01C1
S1130C3001960E942406EF81F885E00FF11F1082CF
S1130C402E96E4E00C941109ABE0B0E0EAE2F6E0A1
S1130C500C94E7086C017B018A01FC01178216825F
S1130C60838181FFCCC1CE0101963C01F6019381C1
S1130C70F70193FD859193FF81917F01882309F406
S1130C80BAC1853239F493FD859193FF81917F0137
S1130C90853229F4B60190E00E941B08E7CF912C1D
S1130CA0212C312CFFE1F315D8F08B3279F038F494
S1130CB0803279F08332A1F4232D20611DC08D325E
S1130CC061F0803369F4232D216016C0832D826086
S1130CD0382EE32DE4603E2E2AC0F32DF8601DC0AB
S1130CE037FC2DC020ED280F2A3040F08E32B9F4A5
S1130CF036FC81C1232D2064322E19C036FE06C075
S1130D008AE0989E200D1124922E11C0EAE02E9EB6
S1130D10200D1124222EF32DF0623F2E08C08C36B4
S1130D2021F4832D8068382E02C0883641F4F701FF
S1130D3093FD859193FF81917F018111B3CF982F0A
S1130D409F7D9554933028F40C5F1F4F9FE3998344
S1130D500DC0833631F0833771F0833509F059C003
S1130D6021C0F801808189830E5F1F4F88248394FA
S1130D70912C530113C02801F2E04F0E511CF801CD
S1130D80A080B18036FE03C0692D70E002C06FEF11
S1130D907FEFC5010E9410084C018201F32DFF77FB
S1130DA03F2E16C0280122E0420E511CF801A080FB
S1130DB0B18036FE03C0692D70E002C06FEF7FEF93
S1130DC0C5010E9405084C01F32DF0683F2E8201F5
S1130DD033FC1BC0822D90E088169906B0F4B6014E
S1130DE080E290E00E941B082A94F4CFF50137FCBE
S1130DF0859137FE81915F01B60190E00E941B0846
S1130E0021102A9421E0821A91088114910471F727
S1130E10E8C0843611F0893641F5F80137FE07C081
S1130E2060817181828193810C5F1F4F08C0608152
S1130E307181072E000C880B990B0E5F1F4FF32D49
S1130E40FF763F2E97FF09C0909580957095619528
S1130E507F4F8F4F9F4FF0683F2E2AE030E0A30171
S1130E600E945708882E861845C0853731F4232DF3
S1130E702F7EB22E2AE030E025C0932D997FB92E23
S1130E808F36C1F018F4883579F0B5C0803719F081
S1130E90883721F0B0C0E92FE061BE2EB4FE0DC04A
S1130EA0FB2DF460BF2E09C034FE0AC0292F266032
S1130EB0B22E06C028E030E005C020E130E002C0D8
S1130EC020E132E0F801B7FE07C0608171818281C0
S1130ED093810C5F1F4F06C06081718180E090E0B8
S1130EE00E5F1F4FA3010E945708882E8618FB2D02
S1130EF0FF773F2E36FE0DC0232D2E7FA22E8914A0
S1130F0058F434FE0BC032FC09C0832D8E7EA82E0B
S1130F1005C0B82CA32C03C0B82C01C0B92CA4FE66
S1130F200FC0FE01E80DF11D8081803321F49A2D5C
S1130F30997EA92E09C0A2FE06C0B394B39404C03E
S1130F408A2D867809F0B394A3FC11C0A0FE06C0D4
S1130F50B21488F4280C922C9B180EC0B21460F4BE
S1130F60B60180E290E00E941B08B394F7CFB2145C
S1130F7018F42B1802C0982C212CA4FE10C0B60122
S1130F8080E390E00E941B08A2FE17C0A1FC03C0EE
S1130F9088E790E002C088E590E0B6010CC08A2D95
S1130FA0867859F0A1FE02C08BE201C080E2A7FC62
S1130FB08DE2B60190E00E941B08891438F4B60152
S1130FC080E390E00E941B089A94F7CF8A94F3017F
S1130FD0E80DF11D8081B60190E00E941B0881108C
S1130FE0F5CF222009F442CEB60180E290E00E94BF
S1130FF01B082A94F6CFF6018681978102C08FEFF1
S11310009FEF2B96E2E10C940309FC0105906150DB
S113101070400110D8F7809590958E0F9F1F08950A
S1131020FC016150704001900110D8F780959095B3
S11310308E0F9F1F08950F931F93CF93DF93FB0190
S1131040238121FD03C08FEF9FEF2CC022FF16C028
S113105046815781248135814217530744F4A08186
S1131060B1819D012F5F3F4F318320838C93268173
S113107037812F5F3F4F3783268314C08B01EC01E8
S1131080FB010084F185E02D0995892BE1F6D80157
S113109016968D919C911797019617969C938E9313
S11310A01697CE01DF91CF911F910F910895FA0108
S11310B0AA27283051F1203181F1E8946F936E7F93
S11310C06E5F7F4F8F4F9F4FAF4FB1E03ED0B4E084
S11310D03CD0670F781F891F9A1FA11D680F791FC5
S11310E08A1F911DA11D6A0F711D811D911DA11DD6
S11310F020D009F468943F912AE0269F11243019E6
S1131100305D3193DEF6CF010895462F4770405D80
S11311104193B3E00FD0C9F7F6CF462F4F70405D2F
S11311204A3318F0495D31FD4052419302D0A9F78A
S1131130EACFB4E0A6959795879577956795BA9584
S1131140C9F700976105710508959B01AC010A2E4A
S113115006945795479537952795BA95C9F7620F21
S1131160731F841F951FA01D0895052E97FB1EF461
S113117000940E94CC0857FD07D00E941E0907FC6A
S113118003D04EF40C94CC0850954095309521959D
S11311903F4F4F4F5F4F089590958095709561959F
S11311A07F4F8F4F9F4F08950E945D05A59F900D1F
S11311B0B49F900DA49F800D911D11240895B7FF35
S11311C00C94D4080E94D408821B930B08952F9288
S11311D03F924F925F926F927F928F929F92AF92C3
S11311E0BF92CF92DF92EF92FF920F931F93CF9310
S11311F0DF93CDB7DEB7CA1BDB0B0FB6F894DEBFA7
S11312000FBECDBF09942A88398848885F846E84CC
S11312107D848C849B84AA84B984C884DF80EE8016
S1131220FD800C811B81AA81B981CE0FD11D0FB61F
S1131230F894DEBF0FBECDBFED010895A1E21A2ED2
S1131240AA1BBB1BFD010DC0AA1FBB1FEE1FFF1F66
S1131250A217B307E407F50720F0A21BB30BE40BB6
S1131260F50B661F771F881F991F1A9469F76095FD
S11312707095809590959B01AC01BD01CF010895B7
S1071280F894FFCF0C
S11312840100000003FF9D01A301A901AF01B50101
S1131294BB01C101C701CD01D301D901DF01E501BE
S11312A4EB01F101F701FD01030209020F0215022A
S11312B41B02210227022D023132334134353642D6
S11312C4373839432A30234450617373776F726417
S11312D43A20002F3300202020200047616E6173E0
S11312E4746521005469656D706F3A202564207318
S11312F465672E00506572646973746521002D2D31
S11313044269656E76656E69646F2D2D0050726551
S113131473696F6E61202A20696E69740041726278
S11313246F6C00426F746F6E004344794D43004305
S11313346C61764500466163696C0047616661735C
S113134400486F6A6173004C6942726F004C616EAD
S11313547A61004E6965766500506552726F00507B
S113136465634553005069416E6F005072594B6573
S11313740052554544610053455249450053616C3C
S113138455640053616C75640053696C6C6100545A
S113139465636C610056616C6F72005665726465B6
S11313A400596E48527A0068415264440073696C6F
S10713B46C61000064
S9030000FC
