S0100000656A656D706C6F312E73726563F7
S11300000C9434000C943E000C943E000C943E007E
S11300100C943E000C943E000C943E000C943E0064
S11300200C943E000C943E000C943E000C943E0054
S11300300C943E000C943E000C943E000C943E0044
S11300400C943E000C943E000C943E000C943E0034
S11300500C943E000C943E000C943E000C943E0024
S11300600C943E000C943E0011241FBECFEFD8E048
S1130070DEBFCDBF0E9440000C9476000C940000BB
S11300808FEF8AB987B18E7F87B988B1816088B9CB
S1130090309B16C08AEA8BB92FEF81EE94E0215091
S11300A080409040E1F700C000001BB82FEF81EEC4
S11300B094E0215080409040E1F700C00000E8CF78
S11300C085E58BB92FEF81EE94E02150804090407C
S11300D0E1F700C000001BB82FEF81EE94E021503F
S11300E080409040E1F700C00000D2CFF894FFCFE9
S9030000FC
