:100000000C9454000C9469000C9469000C946900E1
:100010000C9469000C9469000C9469000C946900BC
:100020000C9469000C9469000C9469000C946900AC
:100030000C9469000C9469000C9469000C9469009C
:100040000C9469000C9469000C9469000C9469008C
:100050000C9469000C9469000C9469000C9469007C
:100060000C9469000C946900001F000000001F0040
:10007000001F101010101F00001F181818181F0064
:10008000001F1C1C1C1C1F00001F1E1E1E1E1F000C
:10009000001F1F1F1F1F1F0003070F1F0F07030055
:1000A000181C1E1F1E1C180011241FBECFEFD8E005
:1000B000DEBFCDBF11E0A0E0B1E0E4E3F6E002C0B6
:1000C00005900D92A031B107D9F70E94DE020C9481
:1000D00018030C94000065B1982F9074492F50E0DC
:1000E00055954795559547955595479555954795F8
:1000F000982F9078292F30E0022E232F000C221FFA
:10010000330B000C221F331F962F997F492B242B72
:1001100025B968B1982F9071492F50E055954795B2
:100120005595479555954795982F9072292F30E012
:10013000359527953595279535952795962F997F50
:10014000492B242B28B99BB192609BB99BB191603C
:100150009BB925ED2A95F1F700009BB19E7F9BB9D5
:100160009BB19D7F9BB995ED9A95F1F7000065B124
:1001700020E1829FC0011124AC01407455275595A0
:1001800047955595479555954795559547959C01A4
:1001900020783327022E232F000C221F330B000C54
:1001A000221F331F362F397F432B242B25B948B10B
:1001B0009C012071332735952795359527953595E1
:1001C000279580729927959587959595879595950B
:1001D0008795942F997F292B822B88B98BB18260C8
:1001E0008BB98BB181608BB985ED8A95F1F70000F1
:1001F0008BB18E7F8BB98BB18D7F8BB995ED9A9535
:10020000F1F70000089565B1982F9074492F50E0E0
:1002100055954795559547955595479555954795C6
:10022000982F9078292F30E0022E232F000C221FC8
:10023000330B000C221F331F962F997F492B242B41
:1002400025B968B1982F9071492F50E05595479581
:100250005595479555954795982F9072292F30E0E1
:10026000359527953595279535952795962F997F1F
:10027000492B242B28B99BB191609BB9EFE9FFE092
:100280003197F1F700C000009BB19E7F9BB9EFE969
:10029000FFE03197F1F700C0000065B1F0E18F9FFA
:1002A000C0011124AC0140745527559547955595CB
:1002B000479555954795559547959C012078332747
:1002C000022E232F000C221F330B000C221F331F82
:1002D000362F397F432B242B25B948B19C0120713F
:1002E0003327359527953595279535952795807230
:1002F0009927959587959595879595958795942FA9
:10030000997F292B822B88B98BB181608BB98FE9BA
:100310009FE00197F1F700C000008BB18E7F8BB991
:10032000EFE9FFE03197F1F700C00000089581E0A8
:100330000E940301089582E00E94030108950F9333
:100340001F93CF93DF93009769F0D62F8C01C0E005
:1003500007C0F801EC0FF11D80810E946B00CF5F98
:10036000CD17B8F3DF91CF911F910F9108956230AF
:1003700031F0633031F0613029F4805C03C08C5E71
:1003800001C08C5A80680E9403010895EF92FF9289
:100390000F931F93CF93DF937C01862F90E0880FFC
:1003A000991F880F991F880F991F8064C0E0D0E0C3
:1003B0000DC0F701EC0FFD1F149101E0080F0E9422
:1003C0000301812F0E946B002196802FC830D10538
:1003D00080F3DF91CF911F910F91FF90EF900895DF
:1003E000CF93DF938FE59AEE0197F1F700C00000FD
:1003F00085B1897F85B988B1897F88B91BB884B1F7
:10040000866084B987B1866087B98AB183608AB90A
:1004100085B1897F85B988B1866088B98BB18160E3
:100420008BB98FE99FE00197F1F700C000008BB115
:100430008E7F8BB98FE99FE00197F1F700C0000034
:1004400085B1897F85B988B1866088B98BB18160B3
:100450008BB98FE99FE00197F1F700C000008BB1E5
:100460008E7F8BB98FE99FE00197F1F700C0000004
:1004700085B1897F85B988B1897F846088B98BB15E
:1004800081608BB98FE99FE00197F1F700C0000010
:100490008BB18E7F8BB98FE99FE00197F1F700C098
:1004A000000088E20E9403018CE00E94030160E0EA
:1004B000C0E00AC0D1E0D60F8C2F90E088599F4F42
:1004C0000E94C601C85F6D2FC034A0F3DF91CF91A9
:1004D00008950E94F0010E9497010E949B010895D7
:1004E00084B1896184B98AB180688AB98AB1837C10
:1004F0008AB98BB18C638BB90895E0E05AC025B1FD
:10050000296125B92BB120682BB9E13051F028F0D1
:10051000E23059F0E33069F00FC025B12F7E25B9E4
:100520000BC025B1277F25B907C025B12E7F25B97E
:1005300003C02BB12F772BB92AE12A95F1F700C020
:100540004B990CC0F0E0EE0FFF1FEE0FFF1FE050C5
:10055000FF4F2081FC01208381E008954D990CC05C
:10056000F0E0EE0FFF1FEE0FFF1FEF5FFE4F208149
:10057000FC01208381E008954C990CC0F0E0EE0F5F
:10058000FF1FEE0FFF1FEE5FFE4F2081FC01208357
:1005900081E008954A990CC0F0E0EE0FFF1FEE0FC6
:1005A000FF1FED5FFE4F2081FC01208381E0089555
:1005B000EF5FE43008F4A3CF80E00895CF93DF939A
:1005C0001F92CDB7DEB70E9469020E94700200E060
:1005D000F12CCE0101960E947D02182F01111BC043
:1005E0008823C9F020E1F21205C061E080E00E949A
:1005F000B7010AC080E2F81207C00E94970160E0CC
:1006000080E00E94B701F12CF39461E0CE010196E5
:100610000E949F0101E0111101C000E09FEF21EE57
:1006200084E0915020408040E1F700C00000D1CF2D
:04063000F894FFCF6C
:100634003132334134353642373839432A30234452
:00000001FF
