:100000000C9454000C9466000C9466000C946600EA
:100010000C9466000C9466000C9466000C946600C8
:100020000C9466000C947A020C9466000C946600A2
:100030000C9466000C9466000C9466000C946600A8
:100040000C9466000C9466000C9466000C94660098
:100050000C9466000C9466000C9466000C94660088
:100060000C9466000C946600001F000000001F0046
:10007000001F101010101F00001F181818181F0064
:10008000001F1C1C1C1C1F00001F1E1E1E1E1F000C
:10009000001F1F1F1F1F1F0003070F1F0F07030055
:1000A000181C1E1F1E1C180011241FBECFEFD8E005
:1000B000DEBFCDBF21E0A0E0B1E001C01D92A530C0
:1000C000B207E1F70E9423030C9433030C94000061
:1000D00065B1982F9074492F50E0559547955595E7
:1000E00047955595479555954795982F9078292F81
:1000F00030E0022E232F000C221F330B000C221F96
:10010000331F962F997F492B242B25B968B1982F3F
:100110009071492F50E055954795559547955595C0
:100120004795982F9072292F30E035952795359572
:10013000279535952795962F997F492B242B28B9FC
:100140009BB192609BB99BB191609BB925ED2A95BB
:10015000F1F700009BB19E7F9BB99BB19D7F9BB93E
:1001600095ED9A95F1F7000065B120E1829FC001FD
:100170001124AC01407455275595479555954795E1
:1001800055954795559547959C0120783327022E24
:10019000232F000C221F330B000C221F331F362F7E
:1001A000397F432B242B25B948B19C01207133277B
:1001B00035952795359527953595279580729927FB
:1001C000959587959595879595958795942F997F82
:1001D000292B822B88B98BB182608BB98BB181605E
:1001E0008BB985ED8A95F1F700008BB18E7F8BB9C5
:1001F0008BB18D7F8BB995ED9A95F1F7000008953D
:1002000065B1982F9074492F50E0559547955595B5
:1002100047955595479555954795982F9078292F4F
:1002200030E0022E232F000C221F330B000C221F64
:10023000331F962F997F492B242B25B968B1982F0E
:100240009071492F50E0559547955595479555958F
:100250004795982F9072292F30E035952795359541
:10026000279535952795962F997F492B242B28B9CB
:100270009BB191609BB9EFE9FFE03197F1F700C0C6
:1002800000009BB19E7F9BB9EFE9FFE03197F1F74A
:1002900000C0000065B1F0E18F9FC0011124AC01E6
:1002A00040745527559547955595479555954795CC
:1002B000559547959C0120783327022E232F000C5B
:1002C000221F330B000C221F331F362F397F432B85
:1002D000242B25B948B19C012071332735952795EA
:1002E000359527953595279580729927959587950A
:1002F0009595879595958795942F997F292B822B96
:1003000088B98BB181608BB98FE99FE00197F1F7D4
:1003100000C000008BB18E7F8BB9EFE9FFE0319711
:10032000F1F700C00000089581E00E9400010895E7
:1003300082E00E94000108950F931F93CF93DF93F3
:10034000009769F0D62F8C01C0E007C0F801EC0FD0
:10035000F11D80810E946800CF5FCD17B8F3DF9157
:10036000CF911F910F910895623031F0633031F0D9
:10037000613029F4805C03C08C5E01C08C5A8068B7
:100380000E9400010895EF92FF920F931F93CF9365
:10039000DF937C01862F90E0880F991F880F991FAB
:1003A000880F991F8064C0E0D0E00DC0F701EC0F0A
:1003B000FD1F149101E0080F0E940001812F0E948F
:1003C00068002196802FC830D10580F3DF91CF914E
:1003D0001F910F91FF90EF900895CF93DF938FE5DA
:1003E0009AEE0197F1F700C0000085B1897F85B9C9
:1003F00088B1897F88B91BB884B1866084B987B118
:10040000866087B98AB183608AB985B1897F85B9E9
:1004100088B1866088B98BB181608BB98FE99FE024
:100420000197F1F700C000008BB18E7F8BB98FE987
:100430009FE00197F1F700C0000085B1897F85B981
:1004400088B1866088B98BB181608BB98FE99FE0F4
:100450000197F1F700C000008BB18E7F8BB98FE957
:100460009FE00197F1F700C0000085B1897F85B951
:1004700088B1897F846088B98BB181608BB98FE93D
:100480009FE00197F1F700C000008BB18E7F8BB920
:100490008FE99FE00197F1F700C0000088E20E9419
:1004A00000018CE00E94000160E0C0E00AC0D1E0E1
:1004B000D60F8C2F90E088599F4F0E94C301C85FD0
:1004C0006D2FC034A0F3DF91CF9108950E94ED010C
:1004D0000E9494010E94980108951092B00087E054
:1004E0008093B1001092B200E0E7F0E0808181607B
:1004F000808308951F920F920FB60F9211248F934D
:10050000809101018F5F809301018D3328F010925B
:10051000010181E0809300018F910F900FBE0F9039
:100520001F901895809104018F5F80930401809142
:1005300004018C33C0F010920401809103018F5F9D
:1005400080930301809103018C3368F010920301C2
:10055000809102018F5F80930201809102018831B6
:1005600010F0109202010895CF93DF93CDB7DEB75C
:1005700029970FB6F894DEBF0FBECDBF9091020150
:100580008DEC989F912D1124969596959695905D5A
:10059000998390910201989F212D112426952695EB
:1005A0002695220F322F330F330F230F921B905DAE
:1005B0009A834AE34B8390910301989F912D1124D4
:1005C000969596959695905D9C8390910301989F42
:1005D000212D1124269526952695220F322F330F93
:1005E000330F230F921B905D9D834E8390910401E6
:1005F000989F912D1124969596959695905D9F8341
:1006000090910401989F812D112486958695869559
:10061000880F282F220F220F820F981B905D98873A
:10062000198660E080E00E94B40168E0CE01019686
:100630000E949C0129960FB6F894DEBF0FBECDBF75
:10064000DF91CF9108950E9466020E946D02789416
:10065000809100018823E1F3109200010E94920230
:0A0660000E94B402F5CFF894FFCF1A
:00000001FF
