S00C0000454A31302E7372656328
S11300000C9434000C943E000C943E000C943E007E
S11300100C943E000C943E000C943E000C943E0064
S11300200C943E000C943E000C943E000C943E0054
S11300300C943E000C943E000C943E000C943E0044
S11300400C943E000C943E000C943E000C943E0034
S11300500C943E000C943E000C943E000C943E0024
S11300600C943E000C943E0011241FBECFEFD8E048
S1130070DEBFCDBF0E9454000C9461000C940000BC
S113008082E084BD83E085BD89EF87BD16BC0895F9
S113009020E007C016BC95B3926095BBA99BFECF28
S11300A02F5F2817B8F3089584B1816084B90E9442
S11300B0400095B181E0892785B98AE00E94480013
S10900C0F8CFF894FFCF15
S9030000FC
